{
    "contractName": "Dao",
    "abi": [
        {
            "inputs": [],
            "stateMutability": "nonpayable",
            "type": "constructor"
        },
        {
            "anonymous": false,
            "inputs": [
                {
                    "indexed": false,
                    "internalType": "uint256",
                    "name": "votesUp",
                    "type": "uint256"
                },
                {
                    "indexed": false,
                    "internalType": "uint256",
                    "name": "votesDown",
                    "type": "uint256"
                },
                {
                    "indexed": false,
                    "internalType": "address",
                    "name": "voter",
                    "type": "address"
                },
                {
                    "indexed": false,
                    "internalType": "uint256",
                    "name": "proposal",
                    "type": "uint256"
                },
                {
                    "indexed": false,
                    "internalType": "bool",
                    "name": "votedFor",
                    "type": "bool"
                }
            ],
            "name": "newVote",
            "type": "event"
        },
        {
            "anonymous": false,
            "inputs": [
                {
                    "indexed": false,
                    "internalType": "uint256",
                    "name": "id",
                    "type": "uint256"
                },
                {
                    "indexed": false,
                    "internalType": "bool",
                    "name": "passed",
                    "type": "bool"
                }
            ],
            "name": "proposalCount",
            "type": "event"
        },
        {
            "anonymous": false,
            "inputs": [
                {
                    "indexed": false,
                    "internalType": "uint256",
                    "name": "id",
                    "type": "uint256"
                },
                {
                    "indexed": false,
                    "internalType": "string",
                    "name": "description",
                    "type": "string"
                },
                {
                    "indexed": false,
                    "internalType": "uint256",
                    "name": "maxVotes",
                    "type": "uint256"
                },
                {
                    "indexed": false,
                    "internalType": "address",
                    "name": "proposer",
                    "type": "address"
                }
            ],
            "name": "proposalCreated",
            "type": "event"
        },
        {
            "inputs": [
                {
                    "internalType": "uint256",
                    "name": "",
                    "type": "uint256"
                }
            ],
            "name": "Proposals",
            "outputs": [
                {
                    "internalType": "uint256",
                    "name": "id",
                    "type": "uint256"
                },
                {
                    "internalType": "bool",
                    "name": "exists",
                    "type": "bool"
                },
                {
                    "internalType": "string",
                    "name": "description",
                    "type": "string"
                },
                {
                    "internalType": "uint256",
                    "name": "deadline",
                    "type": "uint256"
                },
                {
                    "internalType": "uint256",
                    "name": "votesUp",
                    "type": "uint256"
                },
                {
                    "internalType": "uint256",
                    "name": "votesDown",
                    "type": "uint256"
                },
                {
                    "internalType": "uint256",
                    "name": "maxVotes",
                    "type": "uint256"
                },
                {
                    "internalType": "bool",
                    "name": "countConducted",
                    "type": "bool"
                },
                {
                    "internalType": "bool",
                    "name": "passed",
                    "type": "bool"
                }
            ],
            "stateMutability": "view",
            "type": "function"
        },
        {
            "inputs": [
                {
                    "internalType": "uint256",
                    "name": "_tokenId",
                    "type": "uint256"
                }
            ],
            "name": "addTokenId",
            "outputs": [],
            "stateMutability": "nonpayable",
            "type": "function"
        },
        {
            "inputs": [
                {
                    "internalType": "uint256",
                    "name": "_id",
                    "type": "uint256"
                }
            ],
            "name": "countVotes",
            "outputs": [],
            "stateMutability": "nonpayable",
            "type": "function"
        },
        {
            "inputs": [
                {
                    "internalType": "string",
                    "name": "_description",
                    "type": "string"
                },
                {
                    "internalType": "address[]",
                    "name": "_canVote",
                    "type": "address[]"
                }
            ],
            "name": "createProposal",
            "outputs": [],
            "stateMutability": "nonpayable",
            "type": "function"
        },
        {
            "inputs": [],
            "name": "owner",
            "outputs": [
                {
                    "internalType": "address",
                    "name": "",
                    "type": "address"
                }
            ],
            "stateMutability": "view",
            "type": "function"
        },
        {
            "inputs": [
                {
                    "internalType": "uint256",
                    "name": "",
                    "type": "uint256"
                }
            ],
            "name": "validTokens",
            "outputs": [
                {
                    "internalType": "uint256",
                    "name": "",
                    "type": "uint256"
                }
            ],
            "stateMutability": "view",
            "type": "function"
        },
        {
            "inputs": [
                {
                    "internalType": "uint256",
                    "name": "_id",
                    "type": "uint256"
                },
                {
                    "internalType": "bool",
                    "name": "_vote",
                    "type": "bool"
                }
            ],
            "name": "voteOnProposal",
            "outputs": [],
            "stateMutability": "nonpayable",
            "type": "function"
        }
    ],
    "bytecode": "608060405234801561001057600080fd5b50600080546001600160a01b03199081163317909155600180805560038054909216732953399124f0cbb46d2cbacd8a89cf05999749631790915560408051602081019091527f4d2044d8d568c1644158625930de62c4abbb004a0000000000000200000000148152610086916002919061008c565b506100ec565b8280548282559060005260206000209081019282156100c7579160200282015b828111156100c75782518255916020019190600101906100ac565b506100d39291506100d7565b5090565b5b808211156100d357600081556001016100d8565b610f12806100fb6000396000f3fe608060405234801561001057600080fd5b506004361061007d5760003560e01c8063be8bb7ba1161005b578063be8bb7ba146100da578063d1dbe7d8146100ed578063e9d3d16a14610115578063fd0d101f1461013657600080fd5b80631614665c146100825780631840f0ca146100975780638da5cb5b146100aa575b600080fd5b610095610090366004610a64565b610149565b005b6100956100a5366004610a99565b6103c5565b6000546100bd906001600160a01b031681565b6040516001600160a01b0390911681526020015b60405180910390f35b6100956100e8366004610b8f565b6105d5565b6101006100fb366004610a99565b6106f6565b6040516100d199989796959493929190610c8d565b610128610123366004610a99565b6107d0565b6040519081526020016100d1565b610095610144366004610a99565b6107f1565b60008281526004602052604090206001015460ff166101af5760405162461bcd60e51b815260206004820152601c60248201527f546869732050726f706f73616c20646f6573206e6f742065786973740000000060448201526064015b60405180910390fd5b6101b98233610880565b61020f5760405162461bcd60e51b815260206004820152602160248201527f596f752063616e206e6f7420766f7465206f6e20746869732050726f706f73616044820152601b60fa1b60648201526084016101a6565b600082815260046020908152604080832033845260080190915290205460ff161561028c5760405162461bcd60e51b815260206004820152602760248201527f596f75206861766520616c726561647920766f746564206f6e207468697320506044820152661c9bdc1bdcd85b60ca1b60648201526084016101a6565b6000828152600460205260409020600301544311156102ff5760405162461bcd60e51b815260206004820152602960248201527f54686520646561646c696e65206861732070617373656420666f72207468697360448201526808141c9bdc1bdcd85b60ba1b60648201526084016101a6565b6000828152600460205260409020811561032f5760048101805490600061032583610cfe565b9190505550610347565b60058101805490600061034183610cfe565b91905055505b336000818152600883016020908152604091829020805460ff1916600117905560048401546005850154835191825291810191909152908101919091526060810184905282151560808201527f97a3ed91f0b116dc155f238ac92aa5b825720a7bb096f53156e05d9c8ab6a30a9060a00160405180910390a1505050565b6000546001600160a01b0316331461041f5760405162461bcd60e51b815260206004820152601a60248201527f4f6e6c79204f776e65722043616e20436f756e7420566f74657300000000000060448201526064016101a6565b60008181526004602052604090206001015460ff166104805760405162461bcd60e51b815260206004820152601c60248201527f546869732050726f706f73616c20646f6573206e6f742065786973740000000060448201526064016101a6565b60008181526004602052604090206003015443116104e05760405162461bcd60e51b815260206004820152601860248201527f566f74696e6720686173206e6f7420636f6e636c75646564000000000000000060448201526064016101a6565b60008181526004602052604090206009015460ff16156105425760405162461bcd60e51b815260206004820152601760248201527f436f756e7420616c726561647920636f6e64756374656400000000000000000060448201526064016101a6565b600081815260046020819052604090912090810154600582015410156105745760098101805461ff0019166101001790555b60098101805460ff1916600117908190556040517f4556fcf667ee704924eea359363d28f06708b744ad113340982b07ef9919fb91916105c9918591610100900460ff16909182521515602082015260400190565b60405180910390a15050565b6105de3361090e565b61063b5760405162461bcd60e51b815260206004820152602860248201527f4f6e6c79204e465420686f6c646572732063616e2070757420666f7274682050604482015267726f706f73616c7360c01b60648201526084016101a6565b600180546000818152600460205260409020908155808201805460ff19169092179091556002810161066d8482610da0565b50610679436064610e60565b6003820155815161069390600683019060208501906109ea565b508151600782018190556001546040517f3ec21697eb8018b62928e5f290d2bccf3af51e8b6cdf71fceab712977647bba9926106d492918791903390610e73565b60405180910390a1600180549060006106ec83610cfe565b9190505550505050565b600460205260009081526040902080546001820154600283018054929360ff9092169261072290610d17565b80601f016020809104026020016040519081016040528092919081815260200182805461074e90610d17565b801561079b5780601f106107705761010080835404028352916020019161079b565b820191906000526020600020905b81548152906001019060200180831161077e57829003601f168201915b505050600384015460048501546005860154600787015460099097015495969295919450925060ff8082169161010090041689565b600281815481106107e057600080fd5b600091825260209091200154905081565b6000546001600160a01b0316331461084b5760405162461bcd60e51b815260206004820152601960248201527f4f6e6c79204f776e65722043616e2041646420546f6b656e730000000000000060448201526064016101a6565b600280546001810182556000919091527f405787fa12a823e0f2b7631cc41b3ba8828b3321ca811111fa75cd3aa3bb5ace0155565b6000805b60008481526004602052604090206006015481101561090257600084815260046020526040902060060180546001600160a01b0385169190839081106108cc576108cc610ead565b6000918252602090912001546001600160a01b0316036108f0576001915050610908565b806108fa81610cfe565b915050610884565b50600090505b92915050565b6000805b6002548110156109e157600354600280546001926001600160a01b03169162fdd58e918791908690811061094857610948610ead565b6000918252602090912001546040516001600160e01b031960e085901b1681526001600160a01b0390921660048301526024820152604401602060405180830381865afa15801561099d573d6000803e3d6000fd5b505050506040513d601f19601f820116820180604052508101906109c19190610ec3565b106109cf5750600192915050565b806109d981610cfe565b915050610912565b50600092915050565b828054828255906000526020600020908101928215610a3f579160200282015b82811115610a3f57825182546001600160a01b0319166001600160a01b03909116178255602090920191600190910190610a0a565b50610a4b929150610a4f565b5090565b5b80821115610a4b5760008155600101610a50565b60008060408385031215610a7757600080fd5b8235915060208301358015158114610a8e57600080fd5b809150509250929050565b600060208284031215610aab57600080fd5b5035919050565b634e487b7160e01b600052604160045260246000fd5b604051601f8201601f1916810167ffffffffffffffff81118282101715610af157610af1610ab2565b604052919050565b600082601f830112610b0a57600080fd5b8135602067ffffffffffffffff821115610b2657610b26610ab2565b8160051b610b35828201610ac8565b9283528481018201928281019087851115610b4f57600080fd5b83870192505b84831015610b845782356001600160a01b0381168114610b755760008081fd5b82529183019190830190610b55565b979650505050505050565b60008060408385031215610ba257600080fd5b823567ffffffffffffffff80821115610bba57600080fd5b818501915085601f830112610bce57600080fd5b8135602082821115610be257610be2610ab2565b610bf4601f8301601f19168201610ac8565b8281528882848701011115610c0857600080fd5b82828601838301376000928101820192909252909450850135915080821115610c3057600080fd5b50610c3d85828601610af9565b9150509250929050565b6000815180845260005b81811015610c6d57602081850181015186830182015201610c51565b506000602082860101526020601f19601f83011685010191505092915050565b60006101208b83528a15156020840152806040840152610caf8184018b610c47565b60608401999099525050608081019590955260a085019390935260c0840191909152151560e08301521515610100909101529392505050565b634e487b7160e01b600052601160045260246000fd5b600060018201610d1057610d10610ce8565b5060010190565b600181811c90821680610d2b57607f821691505b602082108103610d4b57634e487b7160e01b600052602260045260246000fd5b50919050565b601f821115610d9b57600081815260208120601f850160051c81016020861015610d785750805b601f850160051c820191505b81811015610d9757828155600101610d84565b5050505b505050565b815167ffffffffffffffff811115610dba57610dba610ab2565b610dce81610dc88454610d17565b84610d51565b602080601f831160018114610e035760008415610deb5750858301515b600019600386901b1c1916600185901b178555610d97565b600085815260208120601f198616915b82811015610e3257888601518255948401946001909101908401610e13565b5085821015610e505787850151600019600388901b60f8161c191681555b5050505050600190811b01905550565b8082018082111561090857610908610ce8565b848152608060208201526000610e8c6080830186610c47565b6040830194909452506001600160a01b039190911660609091015292915050565b634e487b7160e01b600052603260045260246000fd5b600060208284031215610ed557600080fd5b505191905056fea264697066735822122042089de6d197c37d86fe895d6a9641e5449039977e311710300e0902f9f2406864736f6c63430008100033",
    "sourcePath": "/home/himanshu/EthOnline/contracts/Dao.sol",
    "compiler": {
        "name": "solc",
        "version": "0.8.16+commit.07a7930e"
    },
    "functionHashes": {
        "Proposals(uint256)": "d1dbe7d8",
        "addTokenId(uint256)": "fd0d101f",
        "countVotes(uint256)": "1840f0ca",
        "createProposal(string,address[])": "be8bb7ba",
        "owner()": "8da5cb5b",
        "validTokens(uint256)": "e9d3d16a",
        "voteOnProposal(uint256,bool)": "1614665c"
    },
    "gasEstimates": {
        "creation": {
            "codeDepositCost": "771600",
            "executionCost": "infinite",
            "totalCost": "infinite"
        },
        "external": {
            "Proposals(uint256)": "infinite",
            "addTokenId(uint256)": "48766",
            "countVotes(uint256)": "63135",
            "createProposal(string,address[])": "infinite",
            "owner()": "2371",
            "validTokens(uint256)": "4619",
            "voteOnProposal(uint256,bool)": "infinite"
        },
        "internal": {
            "checkProposalEligibility(address)": "infinite",
            "checkVoteEligibility(uint256,address)": "infinite"
        }
    }
}